:020000040000FA
:100000009890FF1F69020000710200007302000057
:100010007502000077020000790200000000000075
:100020000000000000000000000000007B02000053
:100030007D020000000000007F020000253000006B
:10004000090A0000510A00007D0A00008302000036
:10005000830200008302000083020000830200008C
:10006000830200008302000083020000830200007C
:10007000830200008302000083020000830200006C
:10008000830200008302000083020000830200005C
:10009000830200008302000083020000830200004C
:1000A000830200008302000083020000830200003C
:1000B000830200008302000083020000830200002C
:1000C000830200008302000083020000830200001C
:1000D000830200008302000083020000830200000C
:1000E00083020000830200008302000083020000FC
:1000F00083020000830200008302000083020000EC
:1001000083020000830200008302000083020000DB
:1001100083020000830200008302000083020000CB
:1001200083020000830200008302000083020000BB
:1001300083020000830200008302000083020000AB
:10014000830200008302000083020000830200009B
:10015000830200008302000083020000830200008B
:10016000830200008302000083020000830200007B
:10017000830200008302000083020000830200006B
:10018000830200008302000083020000830200005B
:10019000830200008302000083020000830200004B
:1001A000830200008302000083020000830200003B
:1001B000830200008302000083020000830200002B
:1001C000830200008302000083020000830200001B
:1001D000830200008302000083020000830200000B
:1001E00083020000830200008302000083020000FB
:1001F00083020000830200008302000083020000EB
:1002000083020000830200008302000083020000DA
:1002100083020000830200008302000083020000CA
:10022000830200008302000083020000000000003F
:10023000000000008302000083020000830200002F
:10024000830200008302000083020000830200009A
:10025000DFF810D000F042F800480047C13300003A
:10026000AFF300809890FF1F06488047064800477C
:10027000FEE7FEE7FEE7FEE7FEE7FEE7FEE7FEE756
:10028000FEE7FEE7D13000005102000040EA010322
:100290009B0703D009E008C9121F08C0042AFAD23C
:1002A00003E011F8013B00F8013B521EF9D2704700
:1002B00030B50B46014600202022012409E021FA36
:1002C00002F59D4205D303FA02F5491B04FA02F533
:1002D0002844151EA2F10102F1DC30BD064C074D89
:1002E00006E0E06840F0010394E807009847103406
:1002F000AC42F6D3FFF7B0FF04360000243600000E
:1003000070B58C1810F8015B15F0070301D110F8D7
:10031000013B2A1106D110F8012B03E010F8016B04
:1003200001F8016B5B1EF9D12B0705D40023521E87
:100330000DD401F8013BFAE710F8013BCB1A921CEF
:1003400003E013F8015B01F8015B521EF9D5A142ED
:10035000D8D3002070BD00000FB407989DED010AAE
:10036000DFED1E0A20EE201A9FED1D0A21EE001A75
:10037000BDEEC11A11EE101A091341639DED021A68
:1003800061EE200A20EE800ABDEEC00A10EE101ABF
:1003900009130163059981620699C162DDED030AC3
:1003A0009DED000A9FED0F1A60EE801AC1EE810AE2
:1003B000FDEEE00AC0ED060ADDED040A60EE800AFB
:1003C00080EE810ABDEEC00A80ED050A0021C16100
:1003D000016241620161016004B0704733335340F0
:1003E0000000804B00007A44034840F223118160F2
:1003F00043F21021816070470090044070477047BD
:10040000BFFFDFFFFFFFFFFFFFFFFFFFFFFFFFFF5C
:10041000FFFFFFFFFFFFFFFFFFFFFFFFFFFFFFFFEC
:10042000FFFFFFFFFFFFFFFFFFFFFFFFFFFFFFFFDC
:10043000FFFFFFFFFFFFFFFFFFFFFFFFFFFFFFFFCC
:10044000FFFFFFFFFFFFFFFFFFFFFFFFFFFFFFFFBC
:10045000FFFFFFFFFFFFFFFFFFFFFFFFFFFFFFFFAC
:1004600030B52C492C4C2D4A02E00B68012B19D0D9
:1004700092F84430DB07F8D012F8461F21F0010152
:100480001170918AC1F30B01254B1961138A016B1D
:10049000463A5943091321638169002907DD491E42
:1004A000816130BD606940F48030606130BDD0E969
:1004B000041399420BDAC36932F8504F2344C361E5
:1004C0005288036A1A440262491C016130BDC26944
:1004D000520092FBF1F2036A5B0093FBF1F3521CB2
:1004E0005110C1615B1C5B100362826A891A00D5DE
:1004F00049429A1A00D55242C36A01258B4201DB58
:10050000934205DA0560606940F00100606130BD2A
:10051000056030BD2C0B70428083FF1F000004403B
:100520006C81FF1F10B5224C224A234902E0136858
:10053000012B29D091F84430DB07F8D011F8462F71
:1005400022F001020A708A8A1C4B1A610B8A026B24
:1005500046395A43121322632269194B012A18D0D3
:10056000C26931F8504F141B426B544324131C6072
:10057000006A4988401A504300135860D3E90001CB
:1005800008444042986010BD606940F4803060616A
:1005900010BDC26931F8504F141B426B54432413F1
:1005A0005C60006A4988401A504300131860E5E710
:1005B0008083FF1F2C0B7042000004406C81FF1FE2
:1005C000E081FF1F002101604160094A12688260DA
:1005D000084A1268C260016141614FF47A72826117
:1005E0004FF44872C26140F6AC52026241627047F9
:1005F0008880FF1F8C80FF1F70B5016800240129CF
:100600000CD0C36901690122994233DC416A491C5B
:100610004162142901DD4462026070BD416A491CD7
:100620004162102904DAD0E904211144416170BD0E
:10063000416909114161C269914201DC446016E0DF
:10064000026A914200DB4261D0E905318B4203DA54
:100650004368002BEBD04161D0E902354669ED1AC1
:10066000761A7543511A95FBF1F1194441604461C2
:10067000446270BD026070BD10B50A46014602A01A
:1006800002F06CFDFEE7000057726F6E672070612C
:1006900072616D65746572732076616C75653A2060
:1006A00066696C65202573206F6E206C696E65200D
:1006B00025640D0A0000000018B504460021002042
:1006C0000090C01E0B4AD3689268002A06D118BD5C
:1006D000106800F080010098401C0090009898423B
:1006E00001D80029F4D011B19480002018BD6FF01A
:1006F000070018BD0880FF1F10B50246D1E90203AC
:100700001344C0EB6300D1E9004304FB00304860B0
:1007100000F58040C0138860CA6010BD01B52DEDA2
:10072000040B9DED000ADFED100A20EE200ADDED3E
:10073000010A80EE201A9FED0D0A21EE000ABDEE9F
:10074000C00A80ED000A0021C1609DED020ADFEDC4
:10075000080A20EE200ABDEEC00A10EE101A416011
:10076000C913816005B000BDDB0FC9400000004720
:100770000000004D01B52DED040B9DED000ADDEDEF
:10078000010A20EE200ADFED0D0A80EE801A9FEDAF
:100790000C0A21EE000ABDEEC00A80ED030A9DEDB1
:1007A000020ADFED080A20EE200ABDEEC00A80ED45
:1007B000000A00218160416005B000BD00007A445C
:1007C00000000047000080454A6813184B60D1E9DB
:1007D00002021044401C8860B0F5004F05DB534313
:1007E000D8130860002048608860086870470000DF
:1007F0000FB410B50C9CDDED020A9FED310A60EEDE
:10080000800AFDEEE00AC4ED040ADDED050A60EEA3
:10081000800AFDEEE00AC4ED0F0ADDED030A60EE8A
:10082000800AFDEEE00AC4ED0D0ADDED040A60EE7B
:10083000800AFDEEE00AC4ED0E0ADDED060A60EE68
:10084000800AFDEEE00AC4ED100ADDED080A9FED16
:100850001D1A60EE811ADDED070A81EEA01ADFEDA8
:100860001A1A21EE211ABDEEC11A84ED111A9DED5E
:10087000091ADFED161A21EE211ABDEEC11A84ED18
:10088000091A9DED0A1A21EE000ABDEEC00A84ED98
:100890000A0A9DED0B0AB8EEC00A9FED0D1A04F18D
:1008A0004800FFF73BFF0020E0612062E062A061AA
:1008B00020606060A060E060606110BC5DF814FBC7
:1008C00000000047DB0FC940000080490000804560
:1008D000000000002DE9FF470C9C6FF07F46A069E7
:1008E00006EA400000F018FE0546A06906EA40004E
:1008F00000F016FED4E90D210B46694343430D4633
:10090000029ED81302EBE131039B714300FB0311FC
:100910000B1302994843A2EBE531039A01FB020055
:100920000513E06B029941434FEA2139039948438B
:100930004FEA2038206C4043D4F800C0ACEB0302EF
:10094000A768791B02FB02F601FB0166801BC0133E
:10095000002800DB002026697243D2134243D213E1
:100960004E43F1134143C813009902EBC101A1EBBF
:1009700009016160019A00EBC200A0EB0800E06091
:10098000626CC91051430CEB61412160C0105043AF
:1009900007EB6040A060421BC81A114600F05EFDE4
:1009A00020F07F406061A169401A20F07F4000F094
:1009B000B7FD616A4143CB10A16A41438911626C62
:1009C0000913E56A514305EB2121E162414301D559
:1009D0000020E062E06A18442062001300FB02F18C
:1009E000A26902EB212121F07F41A1610549484321
:1009F000C013E06104F14801FFF77EFE2063BDE80B
:100A0000FF8700003F24030010B50E49D1F8C02035
:100A10000D48012A03D1426822F480324260D1F8A5
:100A2000C410012903D1416821F400314160FFF76E
:100A3000DBFCFFF7E4FC0548416941F4804141617A
:100A400010BD000000009242009004408083FF1F10
:100A500010B50848006800280AD00748416941F0ED
:100A600008014161FFF7CBFC02490F20091D086016
:100A700010BD00002C7C01408083FF1F10B50D4885
:100A80000168012907D0FFF7BAFC0B48416941F41E
:100A90000041416110BD002101600848006818B1A3
:100AA000BDE8104000F03CBFBDE810400348FFF730
:100AB000D7BC00002C0B70428083FF1F9481FF1F66
:100AC0002DE9F047804619275F495E4808610868AC
:100AD00020F4003008605B48401E0861C86820F0C0
:100AE0000100C860594C00262670608820F0300054
:100AF00060804FF08549C9F85C600125C9F85850FD
:100B0000E6602661608820F00700801C6080DFF8C6
:100B100040A19AF8000000F01FFC9AF8001005FAB6
:100B200001F0E060081980F82070DFF828A19AF839
:100B3000000000F011FCE1689AF8000005FA00F2EC
:100B40001143E160204480F82070DFF80CA19AF88E
:100B5000000000F001FC9AF8000005FA00F12161A4
:100B6000204480F82070DFF8F4A09AF8000000F02C
:100B7000F3FB21699AF8000005FA00F211432161A4
:100B8000204480F82070364805603649088C20F0F3
:100B90000300401C0884088C20F01C0008843048A6
:100BA0000C3006602E4828300560001F0660001FCC
:100BB0000660001F0560488C20F00F00488428481C
:100BC00048300660001F0560254880300560888C2D
:100BD00020F00300401C8884888C20F01C00001D3D
:100BE00088841F488C3006601D48A8300560001FAF
:100BF0000660001F0660001F0560C88C20F00F0013
:100C0000C8841748C8300660001F0560164AC02017
:100C10001060C120121D1060A1F80080C9F87C513D
:100C2000608920F4407040F4807060818E80C9F843
:100C30005C51608920F00300801C608184F845606D
:100C4000BDE8F0870100A5A5008004400000044035
:100C50000480FF1F0780FF1F0580FF1F0680FF1F06
:100C6000141A7042B0800340780801402DE9F04F1B
:100C7000002300204FF01E0C042608274FF0080820
:100C800000249F490D689F494D43C5EB051149005C
:100C900091FBF7F9DFF870A2F203D14500DD1046B1
:100CA000DFF86892DFF868A28944D14500D3104686
:100CB00091FBF6F1DFF85C92494500DD104608B182
:100CC000954D9649964A914201DC002214E0954ADE
:100CD000914201DC01220FE0934A914201DC0222A1
:100CE0000AE0924A914201DC032205E0904A9142D7
:100CF00001DC042200E00522DFF83892494502DCDD
:100D00004FF0000901E04FF00109DFF82CA2514536
:100D10001ADD6FEA0A0A01EB0A0BDFF81CA2AAF13E
:100D2000010AD34501D801240EE0DFF810B28B444C
:100D3000D34501D8022407E0DFF804A25144DFF8CC
:100D400004A2514500D803247F4940F2231AC1F878
:100D500000A043F2102BC1F800B0DFF8ECA10AF1BB
:100D6000180ADAF800E062F3030ECAF800E0DAF8D5
:100D7000002042F44032CAF80020C1F800B0C1F8A7
:100D800000B0724977220A6049EA091242EA096210
:100D900042EA0972A1F10409C9F8002076220A602A
:100DA0006B4A4AF20251A2F8FE13DFF8A891F02133
:100DB00089F8001009F104090F2189F800104FF497
:100DC000254AA2F8FEA34FF4FA5900BF5B1C4B451D
:100DD000FBDB624B6049196161491960C9125960B6
:100DE0009960D96000214FF4967B00BF491C59459A
:100DF000FBDB5949491E19614AF20153A2F8FE333F
:100E000000211162116ADFF85CE141EA0E01116212
:100E1000002100BF491C5945FBDB92F8361001F058
:100E2000FE0182F8361092F83C10C907FBD0D2F8C8
:100E3000001141F08001C2F80011002100BF491CDF
:100E40004945FBDB711E8432D2F87C9061F31F7937
:100E5000C2F87C90D2F87C90791E61F31B69C2F8CD
:100E60007C90D16FA8F1010868F31751D167D16F59
:100E7000ACF1010868F30F21D167D16F21F00301B4
:100E8000D16712F85A1C01F0FE0102F85A1C843A8C
:100E900092F83C108906FBD51032917D01F0F801E3
:100EA000491D9175A2F8EEA34AF20251A2F8EE1381
:100EB000118821F00F0141F009011180A2F8EEA381
:100EC00029490B800A1F1388240323F4E043C4F349
:100ED000023443EA04331380A1F800A005FB0CF5AB
:100EE00095FBF6F221490A604A6053108B6092101C
:100EF0000A618B6195FBF7F2CA604A61BDE8F08F29
:100F00000080FF1F40420F000087930300E4B1F10F
:100F1000011C4E0E00C2EB0B0024F400000E27074C
:100F2000408AF7018014EF03C09EE6050029DE0722
:100F3000007A030A00E1F50580DE8002FF42FEFA36
:100F40007F647DF87F2669040004014004080540A1
:100F50000040054008CC04400100A5A500800440E5
:100F6000EEFAFFFF10221200FC3B05404881FF1FF4
:100F7000F0B5114C4AF2015121800F4B0E4A263335
:100F80007A321D1D161D2F1D002106F1040C0128AB
:100F900008D019801180298031803980ACF8001088
:100FA0002180F0BD02201880108028803080388099
:100FB000ACF80000F4E70000FC3B0540F0B5C44B82
:100FC0009C6824F400749C609C6824F400449C6039
:100FD000C04B01251D60BF4B083B1D60BD4B10334E
:100FE0001D6000241B1D1C60BA4B08331C601B1DB8
:100FF0001C60B84B1B1D1D60B64B1B1F1D60B64B04
:1010000098861887B34824300460988F20F00F002A
:101010009887D88F20F0F000D887D88F62F303002C
:10102000D887AE480460021D1460AC48803004606C
:10103000061D3460AA480460071D3C60101D046052
:10104000001D0460301D0460001D0460381D046034
:10105000001D0460A14810300460001D0460A04819
:1010600070380460001D04609D4810300460001D4D
:1010700004609A4818300460001D0460984868387D
:101080000460001D0460964818300460001D046070
:10109000D88820F00300401CD880D88820F00C00AD
:1010A000001DD880588920F00300401C58815889C1
:1010B00020F00C00001D5881D88920F00300401C4E
:1010C000D881D88920F00C00001DD881D88820F064
:1010D000300040F01000D880D88820F0C00040F0E8
:1010E0004000D880588920F0300040F0100058812E
:1010F000588920F0C00040F040005881D88920F085
:10110000300040F01000D881D88920F0C00040F0B5
:101110004000D881714860300560001D0560001DE9
:101120000560001D05606E4820380560001D0560E3
:10113000001D0560001D0560694860300560001DE8
:101140000560001D0560001D056064487030046086
:10115000001D0460624810380460001D046060488F
:1011600070300460001D04609C825E4898619C831E
:1011700018629C8498624FF6FF7023F81C0C23F8C9
:10118000180C23F8140C23F8100C23F80C0C23F87B
:10119000080C156035603D60B3F8840020F0300025
:1011A00040F01000A3F88400B3F8880020F030006D
:1011B00040F01000A3F88800B3F88C0020F0300055
:1011C00040F01000A3F88C00B3F8840020F0070072
:1011D000A3F88400B3F8880020F00700A3F8880083
:1011E000B3F88C0020F00700A3F88C00B3F884005B
:1011F00020F0C000A3F88400B3F8880020F0C000FD
:10120000A3F88800B3F88C0020F0C000A3F88C008D
:10121000354A4AF201501080344E3348263004805B
:10122000314F3220243738802F4F7A373C80BF1E11
:1012300038802D4F2A373C80BF1E38802A4F7E379A
:101240003C80BF1E3880284F2E373C80BF1E388020
:10125000254F82373C80BF1E388002203060A3F8C3
:101260006810A3F86A10A3F87010A3F87210A3F81E
:101270007810A3F87A101E4804601D4810300460EE
:101280001B48203004601A4818380560001D0560AE
:10129000001D05601648001F056015480C300560EC
:1012A00013481C3005601049062076310880124929
:1012B00010480860D805091D086010480560001D29
:1012C0000560001D0560001D05601480F0BD000074
:1012D00000800440180B70421C80034000047042E0
:1012E00000057042A098A455FC3B054008540540F9
:1012F000981E70420000CF03207C0140A0862F4240
:1013000010B5144C40F2D710E065002001F036FF14
:101310000021084601F04CFF002001F03CFF40F2A4
:1013200079102066C9206066012001F027FF0121A5
:10133000084601F03DFF012001F02DFF022001F0E1
:101340001DFF0221084601F033FFBDE810400220D6
:1013500001F021BF0010054030B5224C4AF2015186
:1013600021800121204A214B102837D2DFE800F0EC
:10137000080A0D101316191C1F2226282B2E313493
:10138000D1632BE0C2F8BC1028E0C2F83C1125E084
:10139000C2F8BC1122E0C2F83C121FE0C2F8BC1235
:1013A0001CE0C2F83C1319E0C2F8BC1316E0104868
:1013B000016013E00E48803001600FE0D9630DE05A
:1013C000C3F8BC100AE0C3F83C1107E0C3F8BC1135
:1013D00004E0C3F83C1201E0C3F8BC1200202080F6
:1013E00030BD0000FC3B05400080A7420090A742B2
:1013F0003C88A7420449012802D0012008607047B8
:101400000020086070470000180B70424FF0E02188
:10141000002802D007200861704704200861704747
:101420000649096891FBF0F04FF0E021401E486149
:10143000002088610421401E01F0BABE4881FF1FD0
:1014400070B5DDE90456044C2080A1802281A3817F
:101450002582A68270BD00000080034030B50246A0
:101460001346002B05D008000FD0002A14DB1446C9
:1014700013E0002902DD4FF4800030BD02DA4FF4A2
:10148000400030BD4FF0000030BD002B01DD0020DA
:1014900030BD4FF4000030BD5442002800DA404215
:1014A0004FF0804584421BDB95FBF3F0484341122B
:1014B0004811002801DB034600E04342C3F58033B6
:1014C0004343181442F6824310FB03F001EBA020C3
:1014D000002A02DD20F07F4030BD00F5000030BD65
:1014E00095FBF1F0504340124211002A01DB1346F4
:1014F00000E05342C3F5803353431A1442F682434B
:1015000012FB03F200EBA220002902DDC0F58000EF
:1015100030BDC0F5400030BD00F58000AFF3008065
:1015200000F500508013C0F309000F49B0F5007FAB
:101530000ADCB0F5807F02DC31F810007047C0F59E
:10154000007031F810007047B0F5407F05DCA0F561
:10155000007031F8100040427047C0F5806031F8EB
:1015600010004042704700000034000010B500F544
:1015700000508013C0F309001B4BB0F5007F17DC4F
:10158000B0F5807F08DC33F810400C60C0F5807047
:1015900033F81000106010BDC0F5007433F814402B
:1015A0000C60A0F5807033F810004042106010BD50
:1015B000B0F5407F0CDCA0F5007433F814406442B1
:1015C0000C60C0F5407033F810004042106010BD50
:1015D000C0F5806433F8144064420C60A0F540709C
:1015E00033F81000106010BD00340000002801DC4A
:1015F0000020704700214FF08042904202D3A0F1BA
:101600008040114601F180534A08834202D8C01A33
:1016100002F1805202F180635108834202D8C01A5D
:1016200001F1806101F180734A08834202D8C01A37
:1016300002F1807202F580035108834202D8C01A79
:1016400001F5800101F580134A08834202D8C01ACF
:1016500002F5801202F580235108834202D8C01A95
:1016600001F5802101F580334A08834202D8C01A6F
:1016700002F5803202F580435108834202D8C01A35
:1016800001F5804101F580534A08834202D8C01A0F
:1016900002F5805202F580635108834202D8C01AD5
:1016A00001F5806101F580734A08834202D8C01AAF
:1016B00002F5807202F140015308814201D8401ABC
:1016C000403303F110025908824201D8801A1031C8
:1016D0000B1D4A08834201D8C01A121D531C510821
:1016E000834200D8491C08467047000010B5144CCE
:1016F00004F1D801206BFFF767F86063A4F5BA70B6
:1017000004F1E8010068FEF7F7FF04F58472636BEB
:101710009168594309135160A4F5A073CA035A6133
:1017200052421A61002800DA4042494300FB10107F
:10173000FFF75CFF0349C00348614042086110BDE8
:101740008083FF1F6082FF1F70B52DED028B8CB070
:101750005F494FF47A635F4C0868984203DC0B6082
:101760000022E36320E0B0F5FA5F02DC0022E063D0
:101770001AE04FF47A53984202DC0022E06313E04F
:1017800045F6C052904202DC0022E0630CE04FF4C8
:10179000FA42904205DC012200EBD0704010E06379
:1017A00002E00A600122E3634B4DB7EE008A28682D
:1017B000B0F17E5F01DA85ED008A484883680868E9
:1017C00093FBF0F0401086B200EE103AD5ED000A1F
:1017D000B8EEC00A60EE200A9FED411A80EE810A41
:1017E000BCEEC00A10EE100A81B23E4893FBF0F046
:1017F00000EE100A3C4BB8EEC00AD3ED000A20EE12
:10180000800ABDEEC00A10EE105A3046FFF7D6FB34
:101810003648DFED370A90ED000A20EE200ABDEED3
:10182000C00A10EE101A2B4A3046243A01F0DCFBB5
:10183000002849D0A8B2FFF743F9A8B2FFF740F952
:1018400094ED0F0AB8EEC00A8DED050A294890ED17
:10185000000A2948D0ED000A284820EE200AD0EDE1
:10186000000A20EE200AC8EE000ACDED060A244840
:1018700090ED000A2348D0ED000A80EE201A8DED8D
:10188000071A214800680A90204800680B902048F9
:1018900090ED000A8DED080A1E4890ED000A8DEDCE
:1018A000090A1D48039009A807C88DE8070005A884
:1018B0000FC8FEF751FD194800680CB0BDEC028B53
:1018C000BDE87040FFF7ACBD0CB0BDEC028B70BD45
:1018D0003880FF1F8083FF1F4080FF1F4881FF1F4C
:1018E0000024744940420F004880FF1F4480FF1FBE
:1018F000000000474C80FF1F5080FF1F6C80FF1FBF
:101900006480FF1F6880FF1F5C80FF1F6080FF1FD7
:101910005480FF1F5880FF1F9481FF1F3C80FF1FD2
:101920002DE9FC47544BA3F5A474D4E91412E06CE0
:1019300000F084FD04F5F67778692046FEF7F2FDA5
:10194000D4E914124D4BE06C01F0D2FBB8690028C9
:1019500077D04A4E04F5B8750095D6E90023D6E94C
:101960000401FEF7B7FF286BB860B869012809D0F9
:1019700004F5267001F0B6F9B86A3F4D9835012894
:1019800005D04FE03C48E43000F0A6FEF4E73A4AC8
:10199000B86BE43A111FFFF7E9FDDFF8DC80A8F12E
:1019A000F00808F12009D8F80800C9F80800D8F8AC
:1019B0000C00C9F80C0003CE424601F0BDFB08F153
:1019C0001006D8F8001006F14402306800F02EFB33
:1019D000C9F80000D8F8041006F16402706800F03D
:1019E00025FBC9F80400254E083606F108013268C7
:1019F0000A6072684A6078340096D4E9022301468E
:101A0000206801F084FB03CE3A6B08F5B87301F04F
:101A100052FA08F5B8700095C38A828A418A007C20
:101A200001F012FA386968B1012816D04FF6FF703C
:101A300000900346024601460190FFF701FDBDE814
:101A4000FC8715E068892989CDE90010EB88AA8810
:101A500069882888FFF7F4FCF1E768892989CDE9CE
:101A600000106B882A88E988A888FFF7E9FCE6E778
:101A7000BDE8FC47FEF7C3BCDC82FF1F2080FF1FD0
:101A80002DE9F04F2DED068BABB0F7EE009AFD4837
:101A900090ED001A89EE818ADFF8ECB3B7EE000A08
:101AA000DBED000AC0EE208ADFF8E083F7EE001AD3
:101AB00098ED000A81EE809ADFEDF51A60EE211AAA
:101AC00021EEA00A20EE080A81EE812AF148F24EAA
:101AD00090ED001A86ED001AF048D0ED001A61EE84
:101AE000A00A60EE880AC6ED010AED48D0ED000AB2
:101AF00060EE801ADFEDEB0A61EEA01AC6ED021A65
:101B0000E948D0ED001A21EE800A20EE200A86ED89
:101B1000030AE64890ED000ADFEDE50AB8EEC11AC7
:101B200020EE200AC0EE010A20EE820A86ED040AA9
:101B300006F5DA75E8690024DE4FDFF87C939FED47
:101B4000DFAA00287ED138684FF47A7290FBF2F356
:101B5000A5F194014B603223434393FBF2F2CA6038
:101B600000EE100AD9ED000AB8EEC00A60EE800A55
:101B700080EE8A0ABDEEC00A81ED050AB8EEC00A01
:101B800060EE0A0A00EE100AB8EEC00A80EE801A73
:101B900089ED001A0C608C600C6195ED0F0AB8EEAF
:101BA000C00A8DED0A0AC64890ED000A20EE080A28
:101BB0008DED0B0AC34890ED000A20EE080A8DED6A
:101BC0000C0AC14890ED000AB8EEC00A8DED0D0A6E
:101BD000BE4890ED000A20EE080A8DED0E0ABC48C2
:101BE00090ED000AB8EEC00A8DED0F0AB94890EDED
:101BF000000A20EE080A8DED100AB74890ED000AA1
:101C0000B8EEC00A8DED110ADFF8D0A29AED000AF5
:101C1000B8EEC00A8DED120AA1F13C000590142225
:101C20000EA96846FEF732FB0AA80FC800F0FEFABC
:101C300095ED0F0AB8EEC00A8DED060AA848D0ED62
:101C4000000A00E028E060EEA80ACDED070AA548EA
:101C500090ED001AB8EEC11A8DED081ADAED001AEF
:101C6000F8EEE11ACDED091AA5F1A40000F03CFB55
:101C7000A5F5807000F076FC2C60EC606C602C6147
:101C8000AC616C619848FEF79DFC05F5847140F6E7
:101C90003C1088600120E8616C622C62AC62EC62EE
:101CA00097ED000AF8EEC00AB2EE040A95ED0C1AA0
:101CB000B8EEC11ADFED8D1A21EE211A8C48FEF71D
:101CC00059FD7548D03000F081FC98ED000A8DED8B
:101CD000190A95ED0F0AB8EEC00A8DED180A85486D
:101CE00090ED000A8DED130A96ED020AD6ED030A77
:101CF000B6EE001A70EE201A61EE811ACDED141ABC
:101D000030EE600A20EE010A8DED150A96ED010A0B
:101D10008DED160A96ED040A8DED170A764890EDC2
:101D2000000A8DED1A0A754890ED000A8DED1B0A28
:101D300032201C9072480690182217A96846FEF7B8
:101D4000A5FA13A80FC8FEF753FD99ED000ACAEED5
:101D5000000ACDED2A0A6B4898ED000AD0ED000A82
:101D600060EE800A60EEA80ACDED240A6648D0ED48
:101D7000000A20EE800A20EE280A8DED250A9FED4C
:101D800063AA8DED27AA624890ED000A20EE280A8A
:101D90008DED280A5F4890ED000A20EE090A8DEDCE
:101DA000290A8DED26AA3C485030039028A807C880
:101DB0008DE8070024A80FC800F0B0F995ED0F0AD0
:101DC000B8EEC00A8DED2A0A53489BED000AD0ED0B
:101DD000000A60EE800A60EE880ACDED240A4F48C2
:101DE000D0ED000A20EE800A20EE080A8DED250ACB
:101DF000BFEE000A8DED270ACDED289A484890EDF8
:101E0000000A20EE280A8DED290A23487430039039
:101E100028A807C88DE8070024A80FC800F034F9E7
:101E200095ED0F0AB8EEC00A8DED2A0A3D489BEDEC
:101E3000000AD0ED000A60EE800A60EE880ACDED5F
:101E4000240A3948D0ED000A20EE800A20EE080A64
:101E50008DED250A354890ED000A20EE280A8DED1B
:101E6000290A0D489430039028A807C88DE8070078
:101E700024A80FC800F008F997ED000AF8EEC00A90
:101E80002B4857E06880FF1F6C80FF1F7080FF1F8A
:101E9000DB0FC9407480FF1FCC81FF1F7880FF1FBC
:101EA0007C80FF1F6F12833A8080FF1F8480FF1F9A
:101EB000C18EFF3B3C80FF1FD480FF1F00007A448F
:101EC000A080FF1FA480FF1FA880FF1FAC80FF1F02
:101ED000B080FF1FB480FF1FB880FF1FC480FF1FAA
:101EE000BC80FF1FC080FF1F6C81FF1F0000803976
:101EF0005884FF1FC880FF1FCC80FF1FD080FF1FAA
:101F00000483FF1F1881FF1F1C81FF1F00000000BA
:101F10009080FF1F2081FF1F2481FF1F2881FF1F4A
:101F20002C81FF1F3081FF1F3481FF1F3881FF1F6D
:101F30003C81FF1F90ED000AB8EEC00A1448B0EED5
:101F40004A1AFEF7EBFB97ED000AF8EEC00A1148BB
:101F500090ED000AB8EEC00A0D48B0EE4A1A1030F3
:101F6000FEF7DCFB0A48A83800F00EFD08483C38B4
:101F7000039021A807C88DE80700209BDDE91D011B
:101F8000224600F057FF2BB0BDEC068BBDE8F08F6A
:101F90006884FF1F4081FF1F70B5224C2068401CE1
:101FA0002060A068401CA0602069401C206104F1F2
:101FB0009405A4F13C01286B00F0C8F9FFF796FBEB
:101FC0001948FEF719FB1848A4F16C014068086035
:101FD000A86900B1E86A206861680026884200DBD1
:101FE0002660A068E168884200DBA660206961691C
:101FF000884215DB286A012805D10A49286850392A
:1020000000F04AFB6860686A012808D1054AD5E9F2
:102010000101D03A00F0CEF80249F039486026615B
:1020200070BD0000EC82FF1F6C81FF1F10B5401ACD
:10203000D169814201DA084603E04942814200DD6C
:10204000084694691368D168041B03FB04135168A4
:10205000CC1304FB0034C1F30E01414393680B44DD
:10206000D913A3EBC13393602144D16053699942E2
:1020700001DDD36003E01369994200DAD360906117
:10208000D068C01310BD00000FB407989DED000A82
:10209000DFED1E0A20EE200ABDEEC00A80ED000A28
:1020A0009DED010ADDED060A80EE201A9FED180A6B
:1020B00021EE000ABDEEC00A80ED010ADDED030A43
:1020C0009FED140A60EE800AFDEEE00AC0ED040AFE
:1020D000DDED040A60EE800AFDEEE00AC0ED050ABF
:1020E000DDED050A9FED0C1A60EE810AFDEEE00AB7
:1020F000C0ED070ADDED020A20EE800ABDEEC00A3F
:1021000080ED030A0021816104B0704700000047A0
:102110000000804E0000004D000080450FB407987D
:102120009DED000ADFED1F0A20EE200ABDEEC00A79
:1021300080ED000A9DED010ADDED060A80EE201A11
:102140009FED190A21EE000ABDEEC00A80ED010ADA
:10215000DDED030A9FED150A60EE800AFDEEE00A50
:10216000C0ED040ADDED040A60EE800AFDEEE00A2F
:10217000C0ED050ADDED050A9FED0D1A60EE810A3E
:10218000FDEEE00AC0ED080ADDED020A20EE800A4D
:10219000BDEEC00A80ED030A80ED060A0021C16190
:1021A00004B07047000000470000804E0000004D62
:1021B0000000804570B5401A116A814201DA084674
:1021C00003E04942814200DD084653685169002519
:1021D0009BB19469DE1306FB0046C3F30E03434331
:1021E00094681C44E313A4EBC334946033449361B8
:1021F0008B4205DD9161956007E09561956004E093
:102200001469A34201DA946195601468936904FB30
:102210000033D3608B4201DDD16003E011698B4252
:1022200000DAD160D061D068C01370BD0FB40998D6
:102230009DED010ADFED290A20EE200ABDEEC00A5D
:1022400080ED090A9DED020A20EE200ABDEEC00ACB
:1022500080ED0A0A9DED000A9DED031A20EE012A89
:102260009FED1F1AC2EE011AFDEEE11AC0ED031A2E
:10227000DDED041A61EEA01AFDEEE11AC0ED071AB9
:10228000DDED051A20EE212AC2EE011AFDEEE11A5B
:10229000C0ED041ADDED061A61EEA00AFDEEE00ABB
:1022A000C0ED080ADDED070A60EE201AC1EE810AD2
:1022B000FDEEE00AC0ED050ADDED080A9FED091A02
:1022C00060EE200A80EE810ABDEEC00A80ED060AAB
:1022D000002101604160816004B0704700008045CA
:1022E0000024744900007A4401B52DED040B9DEDE6
:1022F000010ADFED130A20EE200ABDEEC00A80EDD0
:10230000020A9DED000ADDED020ADFED0E1A20EE55
:10231000201AC1EE210AFDEEE00AC0ED010ADDED52
:10232000030A9FED091A60EE200A80EE810ABDEED5
:10233000C00A80ED030A0021016005B000BD000065
:10234000000080450024744900007A4430B53A4BBF
:102350005A694FF0000455064A6A13D4824202DDDE
:102360008A6A82420CDB0A68521C0A60CD68AA4263
:1023700019DB5A6942F040025A618A690A6012E028
:102380000C6010E082420CDB8A6A824209DC0A6837
:10239000521E0A60002A06DC5A6922F040025A6185
:1023A00001E08A690A605A69D20611D4CA69824278
:1023B0000CDC4A68521C4A600D69AA4217DB5A6954
:1023C00042F010025A618A694A6010E04C600EE0E7
:1023D000CA69824209DB4A68521E4A60002A06DC4A
:1023E0005A6922F010025A6101E08A694A605A690A
:1023F000920611D40A6A82420CDB8868401C88600D
:102400004A69904205DB586940F0200058618869AC
:10241000886030BD8C6030BD0A6A824209DC886801
:10242000401E88600028F6DC586920F020005861C2
:1024300030BD8869886030BD8083FF1F3FB500983C
:10244000002800DA40429A68811A0198002800DAD0
:102450004042841A0298002800DA4042801A164A44
:102460005569AD0715D4002903DA002C01DA0028DC
:102470000CDB1868401C18605968884205DB5069FD
:1024800040F002005061D86818603FBD002018601D
:102490003FBD002903DD002C01DD002809DC1868A0
:1024A000401E18600028F3DC506920F002005061E3
:1024B0003FBDD86818603FBD8083FF1F70B5284CB2
:1024C0008269A168514309132269002A10D0494248
:1024D00041606169826801680125914225D00A4600
:1024E000110000D54942C3688B4203DD194605E05F
:1024F0004160EEE703698B4200DA1946002A04DDE9
:102500000A464FF00003E36007E003DAC1F100027E
:10251000E56002E04FF0000211460260826042690D
:1025200002FB01F24FEA2231216081684FF0020084
:1025300051B1A16969B1A169012904D1D4E903129A
:10254000914200D0A06170BDA1690129FBD1A061B9
:1025500070BDFFF795FAE0682061A56170BD0000CD
:102560008083FF1F14499FED150AD1ED000A14491D
:1025700020EE800A096800EE901AB8EEE01AC0EE6C
:10258000010AFDEEE00AC0ED060A090600EE901A07
:10259000B8EEE01AC1EE000ABDEEE00A80ED050AD1
:1025A00008490968C16008490968016100210160A2
:1025B00041608160704700007080FF1F0000704222
:1025C0007480FF1F8880FF1F8C80FF1F0021016027
:1025D000274991ED000A2749B8EEC01AD1ED000A4B
:1025E0002549F8EEE00A61EE201AD1ED000A9FEDD0
:1025F000231A20EE811A81EE812ADFED211A22EEC4
:10260000212ABDEEC22A80ED022A1E49B8EEC02A58
:1026100091ED000AB8EEC00A22EE000A80EE012A0F
:1026200022EE210ABDEEC00A80ED010A164991EDA5
:10263000001A164991ED000A21EE002A9FED141AA6
:1026400060EE810A82EE201A21EE211ABDEEC11A37
:1026500080ED031A0F4991ED001A21EE000A80EE79
:10266000201A21EE210ABDEEC00A80ED040A70474F
:102670007480FF1F8C80FF1F7080FF1F000070425E
:102680000000804B8880FF1F9880FF1FD480FF1FB1
:1026900000007A449C80FF1F30B502030B68D01AFB
:1026A000CC68844202DA1819086007E00C696542B8
:1026B000854202DD181B086000E00A60D1E90002D3
:1026C000904201DA0A6003E08A68904200DD0A6005
:1026D0000868001330BD00002DE9F05F0446DFF804
:1026E0007C829F4F94F800B001239A4DDFF86892E6
:1026F000B96900209B4AD8F804604FF00A0A4FF0ED
:10270000020CBBF10E0F09D2DFE80BF01C2308719D
:102710002908C2FE08080AA208079163BDE8F09FD5
:10272000914F38615362136291636868C00340102F
:10273000C9F80C00C9F818007010C8F800000D2086
:102740002070EBE750621062D0629062606023708C
:10275000E4E70120FEF70CFC04202070DEE7916323
:10276000617849B101290DD04FF0030C022913D033
:10277000032914D06060D1E72860686093626060CC
:102780006370CBE76168491C6160E2699142C5DD15
:10279000606084F801C0C1E784F801C0BEE7396B0E
:1027A000256AA94219DB704D28615362136263697F
:1027B000994207DA2069C9F80C00C9F81800C8F86E
:1027C000006007E0C9F80C00C9F818005160080360
:1027D000C8F800000D202070A0E76B42994202DA91
:1027E000062020709AE784F800C0906396E7E66AB6
:1027F000616AB14203DA266B3144616200E06662CD
:10280000A17821B1012909D0022915D01BE0A16BC3
:10281000491EA163002916DCA37014E0916B636B61
:10282000194421F07F419163E16B491EE163002966
:1028300009DC84F802C006E0216C491E21640029ED
:1028400001DC0B212170616A09136960286065E76A
:10285000636C616A994203DAA36C1944616200E017
:102860006362616A091369602860216DA06A084487
:10287000A062E16C884201DD84F800A0A168001329
:1028800048430012916B084420F07F40906345E775
:102890009163E17829B301293BD002299CD1616879
:1028A000491C6160314ED6F800C076680CFB0CFC08
:1028B00006FB06C6D4F85CC0B44502DAA66DB14288
:1028C0008ADB93622A4AD0602A49C8609061886195
:1028D000A16E69602860386B0003A0620720207039
:1028E0001CE725490860486024490860486024497D
:1028F00008604860234D4FF6FF7129806980A980E8
:10290000E9802981698100E00DE090626060E370F8
:1029100004E76168491C6160626D914297DD606007
:1029200084F803C0FAE6216EA06A0844A062A16898
:10293000001348430012916B084420F07F409063DD
:10294000616EA06A8842A2DDA06E0003606284F816
:1029500000A0E3E6FC81FF1F1C82FF1F9C82FF1F7B
:102960000483FF1F8083FF1FEC82FF1F2080FF1F57
:102970004082FF1F6082FF1F0C82FF1F3080FF1FFD
:102980002880FF1F7483FF1F30B5B549B7EE001ACA
:10299000D1ED000A81EE200AB249D1ED001AC1EE54
:1029A000210A00240470447084704460AE4D91ED9F
:1029B000003A95ED0F1AF8EEC11A83EE211ADFEDF9
:1029C000AB1A21EE211ABDEEC11A80ED021AA849F8
:1029D00091ED001ADFEDA74A21EE241A61EE001AEC
:1029E0009FEDA51A61EE811AFDEEE12AC0ED032AE2
:1029F000A249D1ED001A21EE802ADFEDA11A62EE84
:102A0000211AFDEEE11AC0ED041A9E49D1ED001A1B
:102A1000B8EEE12ADFED9C3A9C4962EE233A91ED53
:102A2000002AB8EEC24A23EE844ADFED993A23EE3B
:102A3000233A84EE035ADFED973A25EE234ABDEEA2
:102A4000C44A14EE101A8161F8EEE11A9FED924A21
:102A5000B8EEC22A61EE841A61EE821A81EE832AF0
:102A600062EE231AFDEEE11AC0ED051AD5ED0F1A3C
:102A70008A4AF8EEE11A92ED002A21EE823ADFED61
:102A8000881A83EE212ABDEEC22A80ED072A854AE4
:102A900092ED002A22EE202A22EE232ABDEEC22A3F
:102AA00012EE102A02628A4200DB016244628462F2
:102AB00095ED0F2A7C49B8EEC22A91ED003A22EE3C
:102AC000033A83EE212ABDEEC22A12EE101A816368
:102AD00095ED0F2A754AB8EEC22A92ED003A22EE21
:102AE000033A83EE212ABDEEC22A12EE102AC263F7
:102AF00095ED0F2A6E4BB8EEC22A93ED003A22EE06
:102B0000033A83EE212ABDEEC22A80ED102A694BDA
:102B100093ED002A22EE242A22EE002A22EE012A38
:102B2000BDEEC22A12EE103AC362002902DC8463B1
:102B3000036302E093FBF1F10163002A02DCC4634A
:102B400044630DE05C4991ED002A9FED5C3A22EE72
:102B5000032ABDEEC22A12EE101A91FBF2F1416374
:102B6000C0ED112A564991ED002AE96B22EE242A84
:102B700062EE002A02EE101AB8EEC23A82EE832A02
:102B800022EE012ABDEEC22A80ED122A4D4A92EDB4
:102B9000002A22EE202A22EE012ABDEEC22A12EEDF
:102BA000102A92FBF1F20265474A92ED002A22EECA
:102BB000202A22EE012ABDEEC22A80ED132A02EE5F
:102BC000101A424AB8EEC22AD2ED002A62EE222A38
:102BD00082EEA12ABDEEC22A80ED152A02EE101A5D
:102BE0003B4AB8EEC22AD2ED002A62EE222A82EED9
:102BF000A12AFDEEC21AC0ED161A364AD2ED001A0D
:102C000061EE801A61EEA31AFDEEE11A11EE902A30
:102C10005243C265304AD2ED001A21EE800A20EEFE
:102C2000230ABDEEC00A80ED1A0A2C4A92ED000A72
:102C300020EE200A20EE010ABDEEC00A10EE102A96
:102C400092FBF1F10166264991ED000A20EE200A7F
:102C500020EE010ABDEEC00A80ED190A30BD000069
:102C60006C80FF1F7080FF1F8083FF1F0000804962
:102C70009480FF1F0AD7633F0000804B9080FF1FA6
:102C80000000004D7480FF1F9A99193F8880FF1F34
:102C900000007042000080456666663FD880FF1FD6
:102CA00000007A44DC80FF1FE480FF1FE880FF1FE4
:102CB000EC80FF1FE080FF1FF080FF1F000B3647F6
:102CC000F480FF1FF880FF1FFC80FF1F0C81FF1F97
:102CD0001081FF1F1481FF1F0081FF1F0881FF1F4C
:102CE0000481FF1F2DE9F0410446474B474A98698C
:102CF0009063474F0525002039780D2908D0506290
:102D00001062D0629062FDF77AFB2570BDE8F08119
:102D1000217801290FD00229F8D00329F6D00429FF
:102D200023D0052967D050621062D0629062BDE85E
:102D3000F041FDF764BB2061A168012904D0257032
:102D4000BDE8F041FDF75BBB196B3B6A994208DABD
:102D500050621062D06290622570BDE8F041FDF7CC
:102D60004EBB042121702073D0E7217B4FF0010C72
:102D7000E9B1012935D02169491C2161254B1E6823
:102D80005B68764303FB0363FE6D9E4202DABB6D14
:102D90009942BBDBC2F828C01F49C8601F4AD060F7
:102DA000886190611E49486008602570AEE75062F6
:102DB0001062D06290621B49086048601A4908603E
:102DC00048601A4908604860194A4FF6FF7111803F
:102DD00051809180D18011815181206184F80CC093
:102DE00094E72169491C21617A6D91428EDD206151
:102DF000022020738AE750621062D0629062BDE8C0
:102E0000F041FDF7FCBA00000483FF1F8083FF1F21
:102E1000C083FF1F2080FF1F4082FF1F6082FF1FB3
:102E2000FC81FF1F0C82FF1F3080FF1F2880FF1FC7
:102E30007483FF1F0FB4079802998160012101700C
:102E40000021016104B0704710B5029C49080A4492
:102E500092B213449BB2012815D0022817D0032840
:102E600019D004281BD005281DD006281FD04FF6E6
:102E7000FF702080A080208120886080A088E08072
:102E80002089608110BD2180A2802381F4E7A18088
:102E900022802381F0E7A18022812380ECE7218139
:102EA000A2802380E8E721812280A380E4E72180BB
:102EB0002281A380E0E72DE9F04743F26D7401FB26
:102EC00004F54FF4804404EB8505ED1300EB400658
:102ED00004EB8634E6136C1CA6EB64067419674297
:102EE00000EB400C4FF4804404EB8C3C43F26D78D3
:102EF00001FB08F804EB8804E4134FEAEC3C04F10E
:102F00000108ACEB680CA444CCF1000CCCF1000C33
:102F1000C4F100094FF00108002E11DB002D03DB86
:102F200083F8108034462FE0002F04DB05241C7446
:102F30003C46354628E006241C7464464D4623E092
:102F400000EB40064FF4804404EB863643F26D7A82
:102F500001FB0AFA04EB8A04E413F613641CA6EBE3
:102F600064046642002D04DC04241C744C4635467F
:102F70000AE0002F04DC02241C743446654603E09A
:102F800003241C742C463D464FF0006696FBF2F27B
:102F9000544304F50064DE6824137443E41355437A
:102FA00005F500652A137243D5139A686719B2EBC9
:102FB000C73F0EDA92FBF7F25443E4135543ED1387
:102FC0005043C01318604A43D013586083F81180EF
:102FD00003E018605960002058749C82DD82301B29
:102FE000401B5882BDE8F08710B5441E4FF6FF73B2
:102FF0009C4201D3002010BDD06046F26664A1421D
:1030000003DB21464843906001E04143916000208A
:10301000106050601074507453829082D0820120EE
:1030200010BD000003480068012801D1FEF7B4BFBD
:10303000704700009481FF1F30B51E480068C1072B
:103040001D4802D01D49416001E01D4941601D4AF3
:1030500092F8261001F007031B494FF40044062B99
:1030600006D2DFE803F00306080A0C0E416801608F
:1030700030BD016030BD046030BD016030BD046012
:1030800030BD02F580721368C3F307231468240F60
:10309000126802F003020D4DED6905B14168521C42
:1030A000B1FBF2F15B1C5943641CB1FBF4F101600C
:1030B00030BD0000840601401880FF1F0024F4008A
:1030C000002D31010040054000127A000020A84286
:1030D00000B50648016841F470010160FFF7ACFFDC
:1030E000024900208039086000BD000088ED00E042
:1030F0000FB500981860009844F6E711484301990D
:1031000049F2CD3201FB0200C01358600FBD0FB56C
:103110000598039A00995143DDE9012302FB13113D
:10312000C9130160029A0099039B5143019A02FB63
:103130000311C91341600FBD17B5D168009B019CF5
:1031400090684B4304FB0033DB131360019B4B433C
:10315000009901FB1030C01350601EBD0FB4054B29
:1031600010B503A9044A029800F042F810BC5DF8BB
:1031700014FB0000A93300004481FF1F002809DB75
:1031800000F01F02012191404009800000F1E02081
:10319000C0F880127047002809DB00F01F020121EF
:1031A00091404009800000F1E020C0F80011704714
:1031B0000907090E002804DB00F1E02080F8001464
:1031C000704700F00F0000F1E02080F8141D7047F8
:1031D00002E008C8121F08C1002AFAD170477047E0
:1031E000002001E001C1121F002AFBD1704700003E
:1031F0002DE9FF4F8BB09A460F460546002606E0A4
:1032000025280BD052460D9990476D1C761C2878C6
:103210000028F5D10FB03046BDE8F08F0024A0465D
:103220000122604900E0044315F8013F203B02FA07
:1032300003F00842F7D128782E2817D115F8010F8E
:1032400044F004042A280ED06FF02F022878A0F151
:10325000300109290AD808EB880102EB410100EB93
:1032600001086D1CF2E757F8048B6D1C287869285B
:103270003ED006DC0028CDD063280BD0642804D1D2
:1032800036E0732810D075284BD052460D999047E0
:10329000761C85E017F8040B8DF8000000208DF8EF
:1032A0000100E946012003E057F8049B4FF0FF308E
:1032B00061074FF0000401D40AE0641C44450DDAB4
:1032C0008442FADB19F804100029F6D106E0641CE8
:1032D0008442FCDB19F804100029F8D1264404E0EC
:1032E00019F8010B52460D999047641EF8D257E029
:1032F00001CF4FF00A0B002802DA40422D2102E0F4
:10330000210504D52B218DF82410012103E0E107CC
:1033100005D02021F7E70DF1200908910CE00021EC
:10332000F9E701CF4FF00A0BF9E75946FCF7C0FF68
:1033300001F1300209F8012D0028F6D1ADEB0900AA
:1033400000F1200B600701D44FF00108D84502DDE1
:10335000A8EB0B0000E000208046002406E009A84E
:103360005246005D0D999047641C761C0898844273
:10337000F5DB04E0302052460D999047761CB8F1F9
:103380000001A8F10108F5DC05E019F8010B52462F
:103390000D999047761CBBF10001ABF1010BF4DCF9
:1033A0006D1C34E70928010010B50446E0B2FDF7B2
:1033B00083F910B14FF0FF3010BD204610BD000062
:1033C000FDF79EFFFDF752FC0446FDF717F8FEF7E8
:1033D000BBF9FEF755FB0120FEF718F80120FEF7B8
:1033E00009F824B10448416941F4003141610348BE
:1033F000FFF764F8FBE700008083FF1F8082FF1F58
:103400000000C90092015B022403ED03B6047F05AE
:1034100048061107D907A2086B09330AFB0AC40B37
:103420008C0C540D1C0EE40EAB0F73103A110112EC
:10343000C8128F1355141C15E215A8166E173318F1
:10344000F918BE19831A471B0C1CD01C931D571E5C
:103450001A1FDD1F9F2062212422E522A723672453
:103460002825E825A82668272728E528A429622AF0
:103470001F2BDC2B992C552D112ECC2E872F423053
:10348000FC30B5316E322733DF3397344E35043696
:10349000BA3670372538D9388D39403AF33AA53BDA
:1034A000573C083DB83D683E173FC63F7440214138
:1034B000CE417A422643D1437B442445CD457546CF
:1034C0001D47C4476A480F49B449584AFB4A9E4BB6
:1034D000404CE14C814D214EC04E5E4FFB4F985009
:1034E0003451CF51695203539B533354CA546055DE
:1034F000F6558A561E57B1574358D4586459F45953
:10350000825A105B9D5B295CB45C3E5DC85D505E79
:10351000D75E5E5FE45F6860EC606F61F16172626C
:10352000F2627163EF636C64E9646465DE6557663B
:10353000D0664767BD673268A7681A698C69FD69FC
:103540006E6ADD6A4B6BB86B246C8F6CF96C626DC4
:10355000CA6D316E976EFB6E5F6FC26F23708370A2
:10356000E37041719E71FA715572AF7208735F73A7
:10357000B6730B746074B37405755675A675F475DF
:1035800042768E76D97623776C77B477FB7740785E
:103590008578C8780A794A798A79C979067A427A27
:1035A0007D7AB77AEF7A277B5D7B927BC67BF97B4E
:1035B0002A7C5A7C897CB77CE47C0F7D3A7D637DD4
:1035C0008A7DB17DD67DFB7D1E7E3F7E607E7F7EC7
:1035D0009D7EBA7ED67EF07E0A7F227F387F4E7F28
:1035E000627F757F877F987FA77FB57FC27FCE7F01
:1035F000D97FE27FEA7FF17FF67FFA7FFE7FFF7F50
:1036000000800000243600000080FF1F48010000F9
:1036100000030000D43600004881FF1F500F000057
:10362000E0310000321012030330010523803E53C5
:1036300088131A4003323F263F1283403D1AA010E0
:103640003B48420422083250258FC225411AC0044B
:103650001A801C34FA43072809AE47E13D0AD7A374
:103660003B04AF7B14AE3E2003501AC0501AA0306A
:103670001A20042AE03C4440F4011CD041E82831DF
:1036800059083AA0182938194818093CCDCC0C3FE4
:103690003333B39A29441AC8842A2874194C599090
:1036A000197C612958291029081119201A70082934
:1036B000B81934280F50C3460AD7233DCDCCCC3C93
:1036C000AE4761D01A410C190829BCAB803F0C32BF
:0436D0006429044124
:0400000500000251A4
:00000001FF
